:020000040800F2
:10000000700500209D010008AB010008AD0100084B
:10001000AF010008B1010008B301000800000000B2
:10002000000000000000000000000000B501000812
:10003000B701000800000000B9010008BB0100087A
:10004000BD010008BD010008BD010008BD01000898
:10005000BD010008BD010008BD010008BD01000888
:10006000BD010008BD010008BD010008BD01000878
:10007000BD010008BD010008BD010008BD01000868
:10008000BD010008BD010008BD010008BD01000858
:10009000BD010008BD010008BD010008BD01000848
:1000A000BD010008BD010008BD010008BD01000838
:1000B000BD010008C90B0008BD010008BD01000812
:1000C000BD010008BD010008BD010008BD01000818
:1000D000BD010008A10E0008BD010008D90E0008EE
:1000E000BD010008BD010008BD010008BD010008F8
:1000F000BD010008BD010008BD010008BD010008E8
:10010000BD010008BD010008BD010008BD010008D7
:10011000BD010008BD010008BD010008BD010008C7
:10012000BD010008BD010008BD010008BD010008B7
:10013000BD010008BD010008BD010008BD010008A7
:10014000BD010008BD010008BD010008BD01000897
:10015000BD010008BD010008BD010008BD01000887
:10016000BD010008BD010008BD010008BD01000877
:10017000BD010008BD010008BD010008BD01000867
:10018000BD010008BD010008DFF80CD000F02EF81A
:1001900000480047FD12000870050020084801686B
:1001A00041F47001016007480047FEE7FEE7FEE703
:1001B000FEE7FEE7FEE7FEE7FEE7FEE7FEE70000FC
:1001C00088ED00E089010008D2B201E000F8012BBF
:1001D000491EFBD270470022F6E710B513460A46C7
:1001E00004461946FFF7F0FF204610BD064C074DA8
:1001F00006E0E06840F0010394E8070098471034F7
:10020000AC42F6D3FFF7C4FFC0180008E01800089E
:100210001CB54548006840F4807043490860424876
:100220001438006840F004003F4914390860002089
:10023000009003460322114601903C4800F0F4F977
:1002400039482038006840F4807037492039086008
:100250000846006820F4807008603548006840F463
:1002600080303449C1F804030846D0F8040320F074
:100270001F002F49086000202E494860886008460A
:10028000406848600846406840F48070486008460E
:10029000806888600846806820F040508860084682
:1002A000806820F4006088600846C06A20F470000E
:1002B000C8620846C06A40F48010C8620846C06838
:1002C00020F00700C8600846C06840F00700C8601A
:1002D0000846406B40F00A0048630846C06820F0BA
:1002E0003800C8600846C06840F03800C86008465A
:1002F000406B40F4B07048630846806840F48070FA
:1003000088600846806840F400708860084680680D
:1003100040F0010088600846806840F080408860B6
:1003200000F0F0F81CBD0000443802400008024014
:1003300004230140002001402DE9FC4704460D46FE
:1003400016461F46DDF828904FF0000814B10DB195
:1003500006B117B90120BDE8FC87601EC4B2681E53
:10036000C5B2701EC6B2781E87B26248006840F0FF
:100370000100604908605F481430006840F01000D8
:100380005C49143108600120032100230222CDE9D9
:100390000010C902584800F047F909220B215648BD
:1003A00000F022F909220C21534800F01DF95148B0
:1003B0001030006840F000704E4910310860002095
:1003C0004E4908600846006840F00100086008E0F7
:1003D00008F101001FFA80F8B8F1640F01DD022076
:1003E000B9E74648001D006800F001000028EFD082
:1003F00042480068414908600846006808600846AD
:10040000006808600846006840F010000860084670
:1004100000680860084600680860002037491C3101
:1004200008600846006840EA89700860084600686D
:1004300040EA046008600846006840EA0550086029
:100440000846006840EA06400860084600683843ED
:1004500008602A48006820F001002849086009E087
:1004600008F101001FFA80F84FF6F070804501DDB9
:10047000032070E72148001D006800F001000028FB
:10048000EED11F48006840F001001D4908601C487B
:100490001C30006820F0010019491C310860184820
:1004A0000C30006840F0010015490C310860144818
:1004B000001D00681249091D0860114814300068C9
:1004C0000F491431086000200D49403108600021B7
:1004D0000B48443001600A481C30006840F00100BD
:1004E00007491C310860064800680020044908607C
:1004F00000BF30E730380240000002400064004096
:10050000006600403448006840F4800032490860CA
:100510003248006820F001003049086000BF2F48D1
:10052000006800F001000028F9D12C480838006864
:1005300040F03D0029490839086028480830006823
:1005400027490843254908310860081D00682549E6
:10055000084322490C3108602048001D006840F023
:1005600002001E49091D0860081F006820F0606035
:10057000091F08600846006840F48030086017488A
:100580001430006820F00400144914310860134846
:10059000006820F0C000114908600846006820F497
:1005A000007008600846006840F4806008600846F3
:1005B000006840F4006008600846006840F400509D
:1005C00008600846006840F48070086008460068CB
:1005D00040F001000860704730380240106402406B
:1005E0004C2001403C01002030B5CC1000F120032C
:1005F00053F824304C07E50E0F24AC40A343CD1034
:1006000000F1200444F82530CC1000F1200353F809
:1006100024304C07E40E02FA04F42343CD1000F119
:10062000200444F8253030BD2DE9F0470C46DDE9C3
:100630000867002100258C4600BF60E04FF00108EC
:1006400008FA01F504EA050CAC4557D1D0F8008052
:100650004FEA410A4FF0030909FA0AF928EA0908A2
:10066000C0F80080D0F800804FEA410902FA09F989
:1006700048EA0908C0F80080012A01D0022A27D1DF
:10068000D0F808804FEA410A4FF0030909FA0AF945
:1006900028EA0908C0F80880D0F808804FEA410924
:1006A00006FA09F948EA0908C0F80880D0F8049069
:1006B0004FF0010808FA01F829EA0809C0F8049087
:1006C000D0F8048003FA01F948EA0908C0F8048068
:1006D000D0F80C804FEA410A4FF0030909FA0AF9F1
:1006E00028EA0908C0F80C80D0F80C804FEA4109CC
:1006F00007FA09F948EA0908C0F80C80491C1029D2
:100700009CD3BDE8F08700001CB51948006840F094
:10071000080017490860022000210B460A46CDE96F
:1007200000104FF470611348FFF77EFF1048006817
:1007300040F010000E490860022000210B460A46D6
:10074000CDE90010C1210C48FFF76EFF0848006892
:1007500040F0400006490860022000210B460A468E
:10076000CDE9001008210548FFF75EFF1CBD000021
:1007700030380240000C02400010024000180240D5
:1007800010B5044653480068012820D05148001D88
:10079000006801281BD04F4808300068012816D097
:1007A0004C480C300068012811D04B4800680128E3
:1007B0000DD0494818300068012808D046481C3040
:1007C0000068012803D045480068002879D10F202F
:1007D00000F05AFD3F480068012806D13D48001D41
:1007E000006810B9012060700CE03A48006838B920
:1007F0003848001D0068012802D10220607001E025
:1008000000206070334808300068012801D1E07092
:1008100001E00020E0702F480C300068012801D171
:10082000207101E0002020712B48006801281FD1B1
:100830002B480078401C2A49087008460078322866
:100840000ED128480078607126480078C0432649B8
:1008500008602448007880F00100224908700AE00E
:100860001F480078322806DD32201D49087002E05A
:1008700000201B49087018481C3000681B48D0F83D
:100880001802012801D1A07101E00020A0711348D5
:10089000006890B916480078401C15490870084651
:1008A0000078642814DD002008700F49091F0860D3
:1008B0001049C1F888020BE003E000200C490870E1
:1008C00006E000206070E0702071E071044908705B
:1008D00010BD000020824142000242420C0243420D
:1008E0002500002024000020AC8242420000424249
:1008F00026000020000043421CB51748006840F065
:100900002000154908600120032100230246CDE99B
:1009100000104FF460611148FFF786FE0E48006832
:1009200040F040000C4908600120032100230246EA
:10093000CDE9001004210A48FFF776FE012009499D
:1009400008600949C1F8A80206490831086007494A
:10095000C1F888021CBD000030380240001402407B
:1009600000180240A48242420080424200004342FA
:100970002DE9F0410746884614461D46284600F0FA
:1009800033F8C5F1040007FA00F60F20284100EA09
:100990000800064306F00F06E21704EBD26252117C
:1009A000920002F1E022D2F800212146E31704EB85
:1009B000D3635B11A4EB431C012303FA0CF31A432A
:1009C0002046E31704EBD3635B119B0003F1E023A4
:1009D000C3F800210348005D40EA061001490855AC
:1009E000BDE8F08100E400E00146072323EA0102AC
:1009F0001202054B18684FF6FF031840034B1843CB
:100A00001043014B186070470CED00E00000FA0540
:100A10004A0A52020243014B1A60704708ED00E097
:100A200000EE101AB8EE400A9FED081AC0EE010A57
:100A3000074A92ED000AB8EE400A20EE800ABCEEAA
:100A4000C00A10EE102A4263704700000000C8423E
:100A50002C000020F0B504460D4616461F461448EB
:100A6000006840F001001249086000201049083178
:100A700008600F4800680F4908400D4908600E489B
:100A8000091D0860081F006820F48020091F086005
:100A9000002007490C3108603B4632462946204673
:100AA00000F00CF800210846FFF7B2FFF0BD00008F
:100AB00000380240FFFFF6FE10300024F0B5044677
:100AC0000D46002100203D4E366846F480363B4FEF
:100AD0003E6001E04E1CB1B2384E366806F4003676
:100AE0001EB941F6FF76B142F4DB41F6FF76B14222
:100AF00001D1012060E0314E4036366846F0805624
:100B00002E4F40373E602E4E366846F440462C4FFE
:100B10003E602A4E0836366846F41446274F08379A
:100B20003E60264E366826F08076244F3E6045EAC9
:100B300084160127C7EB520746EA074646EA0366D2
:100B400046F480061D4F3F1D3E603E1F366846F04E
:100B500080763F1F3E6000BF184E366806F0007674
:100B6000002EF9D0174E366846F48076154F3E6059
:100B70003E46366846F400763E603E46366846F4A9
:100B800080663E603E46366846F005063E600B4E87
:100B90000836366826F00306084F08373E603E46A2
:100BA000366846F002063E6000BF044E08363668DE
:100BB00006F00C06082EF8D1F0BD00000038024007
:100BC00000700040003C02401348008800F0010023
:100BD000D0B112480078401C104908701048806855
:100BE00040F080400E4988600E48006840F00100E7
:100BF0000C490860094800780A2805DB01200A49E9
:100C000008700020054908700348008820F00100A2
:100C100001490880704700001004004030000020A7
:100C200000200140106402402800002070B50546F5
:100C30000C461048006840F002000E4908600E485B
:100C40000560001F04800C482038008840F0010037
:100C500009492039088008482C38008840F00100F4
:100C600005492C39088002231D2203210120FFF7AA
:100C70007FFE70BD403802402C0400407CB5044625
:100C80000D461E48006840F480301C4908601B482F
:100C90001438006840F01000184914390860012029
:100CA000032100230222CDE9001020211448FFF780
:100CB000BBFC032205211248FFF796FC1148C462D1
:100CC00001460D85008B40F0600008830846008BCC
:100CD00040F0080008830846008C40F001000884BA
:100CE0000846008C08840846008840F08000088090
:100CF0000846008840F0010008807CBD443802406E
:100D000000100240004001403148006840F480007B
:100D10002F4908602F48006820F001002D49086025
:100D200000BF2C48006800F001000028F9D12948D4
:100D30003838006840F474102649383908600806CD
:100D400024490860234808300068234908432149A2
:100D500008310860081D0068204908431D490C310E
:100D600008601C48001D006840F064001949091D16
:100D7000086018481430006820F004001549143148
:100D80000860144800681349086008460068086055
:100D90000846006808600846006840F48060086003
:100DA0000846006808600846006808600846006851
:100DB00040F4803008600846006808600846006813
:100DC00008600846006840F00100086070470000B5
:100DD000303802404064024004100140700000209E
:100DE0002B48006840F40010294908602948806AAF
:100DF00020F001002749886200BF2648806A00F081
:100E000001000028F9D12348806840F4741021497A
:100E100088604FF0006088620846006B1E490843F6
:100E20001C4908630846406B1C490843194948633C
:100E30000846C06A40F06400C8620846C06B20F0F3
:100E40000400C8630846806A88620846806A88622F
:100E50000846806A88620846806A40F4806088623A
:100E60000846806A88620846806A88620846806A06
:100E700040F4803088620846806A88620846806A4A
:100E800088620846806A40F001008862704700006E
:100E9000303802400060024004480040D800002082
:100EA0000A48008800F0100070B10948006820F07E
:100EB00001000749086005488088012005494880ED
:100EC0000248808A01498882704700000010014072
:100ED000406402406C0000200B48008800F01000C5
:100EE00088B10A48806A20F00100084988620648F3
:100EF000001D0088012006494880034814300088FE
:100F000001491431088070470048004000600240E9
:100F1000D400002002E008C8121F08C1002AFAD13C
:100F200070477047002001E001C1121F002AFBD169
:100F300070470000014621B90548006800F0030031
:100F400070470348001D006800F00300F8E7000048
:100F50000C64004030B587B004460D460020069072
:100F60000390FFF7E7FF10B9002007B030BD03A8DA
:100F700004AB05AA06A9CDE90005002000F00EF893
:100F80000698A04205D19DF8140010B99DF81000F4
:100F900008B1002003909DF80C00E6E7F0B5DDE90C
:100FA0000554314E06EB0016366806F0040616703E
:100FB000167836B92C4E06EB00163668760D0E60A4
:100FC00005E0294E06EB00163668F6080E60264E40
:100FD00006EB0016366806F002061E70224E06EB7F
:100FE0000016766806F00F062E701F4E06EB0016F0
:100FF000B66826701C4E06EB0016B668360A667098
:10100000194E06EB0016B668360CA670164E06EBA7
:101010000016B668360EE670134E06EB0016F6683C
:101020002671114E06EB0016F668360A66710E4EF2
:1010300006EB0016F668360CA6710B4E06EB001692
:10104000F668360EE67130B9084E366846F020066E
:10105000064F3E6007E0054E361D366846F0200616
:10106000024F3F1D3E60F0BDB06500400C64004083
:101070002DE9F84307460C46154600264FF00109B6
:101080002B46002211463846009400F015F88046A1
:1010900009E0404600F096F8072802D14FF0000919
:1010A00005E0701C86B240F6FF708642F1DB00BF9F
:1010B0004846BDE8F8830000F0B505460E46059C9D
:1010C0003E48006800F0806008B100210FE03B4816
:1010D000006800F0006008B1012108E037480068AE
:1010E00000F0805008B1022101E0FF20F0BD002790
:1010F000334800EB011007601EB9C5F30A056D0502
:1011000002E025F06045ED002D4800EB011000687D
:1011100028432B4F07EB01173860294800EB0110DB
:10112000006840EA8607264800EB01100760244863
:1011300000EB0110006840EA4207214800EB011073
:10114000076003F00F031E4800EB0110406820F019
:101150000F071B4800EB01104760194800EB011016
:1011600040681843164F07EB01177860E0790006D6
:10117000A77940EA0740677940EA072720790743C3
:101180000F4800EB0110C760E0780006A77840EA3E
:101190000740677840EA072027783843084F07EB75
:1011A0000117B860064800EB0110006840F0010725
:1011B000034800EB01100760084697E70864004009
:1011C000806500400146002021B1012913D0022989
:1011D00033D121E01B4A126802F001021043194A80
:1011E000126802F002021043164A126802F080628E
:1011F00040EA126023E0134A126802F00102104331
:10120000104A126802F0020210430E4A126802F0FD
:10121000006240EA526012E00A4A126802F00102DB
:101220001043084A126802F002021043054A12688D
:1012300002F0805240EA926001E0052000BF00BF4A
:1012400070470000086400404FF0E021096921F078
:1012500004014FF0E0221161C21700EB5272C2F399
:10126000C702074B1A701946097801EB4102C2EB1D
:10127000C1114FF6FF7202EAC101024A11807047A4
:10128000200000202200002070B504464FF40770B3
:1012900094FBF0F0C6B24FF4077094FBF0F100FB42
:1012A000114085B205E04FF4077000F009F8701E98
:1012B000C6B2002EF7D115B1284600F001F870BD76
:1012C00001460D4A12884A434FF0E0235A6100223A
:1012D0009A6101221A6100BF4FF0E022106900F00C
:1012E00001021AB100F48032002AF5D000224FF03A
:1012F000E0231A619A6170472200002008B5072395
:10130000022208214FF4A870FFF7A4FBA820FFF7E2
:101310009BFF4FF4FA70FFF7B7FF4FF4FA70FFF737
:10132000B3FF4FF4FA70FFF7AFFFFFF7E5FAFFF7EF
:10133000EBF900BFB44800680028FBD0FEF768FF57
:1013400042F2CF016320FFF771FCB0490968481EE3
:101350005321FFF793FC0021AD48FFF761FB4FF4E9
:10136000E131542000F078F94FF4E1312A2000F007
:1013700007FAA848007806230722194600900120A2
:10138000FEF7DAFF1922A449A44800F087FA1922CF
:10139000A149A34800F082FA08229F49A148007899
:1013A000FFF766FE08229C4908319E480078FFF747
:1013B0005FFE0822984908319A480078FFF758FEE6
:1013C00001229549183197480078FFF751FE4FF4F4
:1013D000FA70FFF759FF16E193480078012827D1EA
:1013E000002091490870192290498C4800F056FA63
:1013F00019228E498A4800F051FA08228B498948FF
:101400000078FFF735FE08228849083185480078C2
:10141000FFF72EFE08228549083182480078FFF741
:1014200027FE0122814918317E480078FFF720FE0F
:101430007F484088012833D17D48007955280FD155
:101440007B484079AA280BD17948C07EF12807D182
:101450007748007FF22803D17548C07C7549087031
:1014600064217348001DFEF7B6FE7348006840F41F
:1014700074107149086070483830006840F001000D
:101480006D49383108606548808A40F04000634902
:1014900088820020664908704880012067490870EA
:1014A00067484088012832D16548007955280FD116
:1014B00063484079AA280BD16148C07EF12807D142
:1014C0005F48007FF22803D15D48C07C594908700D
:1014D00064215B48001DFEF77EFE5A48806840F498
:1014E0007450584988600846806A40F0010088625C
:1014F0004B481430008840F04000494914310880BE
:1015000000204F490870488001204C4908704E491E
:1015100044480078FFF71EFDD0B14B4800785528AD
:101520000FD149484078AA280BD14748C07DF128FF
:1015300007D14548007EF22803D14148C07C3D498F
:1015400008701E214048FEF746FE01203B49087006
:10155000AA203649C8713D48FFF712F93B48407848
:10156000324908723948C078487238480079887220
:101570003648407908733548C07988742F48007818
:1015800000B32C480078012804D0022807D0032893
:101590000FD109E03C211E48FFF742FA0EE0462138
:1015A0001B48FFF73DFA09E05A211948FFF738FABE
:1015B00004E000211648FFF733FA00BF00BF002007
:1015C0001E4908702248006801280AD108201749DE
:1015D000C8700020087108204871002088710872C6
:1015E00011E01C48408800121049C87019488078E2
:1015F000087118480088C0F58050000A48711548E5
:10160000008840428871E7E60C0243422C0000202B
:10161000004001401B000020340000200010014069
:10162000004800401A000020280000200000002090
:101630006C00002019000020086402401C000020FB
:10164000D4000020006002404D0000205001002026
:10165000000242423C010020F0B52DED028B83B028
:1016600005460E46414905FB01F000EE100AF8EE72
:10167000400A300100EE100AB8EE400A80EE801AEF
:10168000B0EE418ABCEEC80A10EE100A84B200EE39
:10169000104AB8EE400A38EE400AF3EE000A20EE97
:1016A000200ABCEEC00A10EE107A4FF6FF7000EA76
:1016B0000414E01984B22E48006840F001002C495F
:1016C00008602B481430006840F01000284914319D
:1016D00008600120022100230A46CDE900104FF4E2
:1016E000C0612448FEF7A0FF072209212148FEF728
:1016F0007BFF07220A211F48FEF776FF1E48048160
:10170000808920F400401C4988810846808940F087
:10171000080088810846808940F0040088810846D6
:10172000808940F01000888102232522194618463E
:10173000FFF71EF91048808940F400500E49888157
:10174000FFF7E2FA00200D490870488064210B4839
:10175000001DFEF740FD0848808A40F04000064921
:10176000888203B0BDEC028BF0BD000040420F0048
:101770003038024000000240001001406C000020A0
:10178000F0B52DED028B83B005460E463F4905FBB3
:1017900001F000EE100AF8EE400A300100EE100AE7
:1017A000B8EE400A80EE801AB0EE418ABCEEC80A5C
:1017B00010EE100A84B200EE104AB8EE400A38EE7D
:1017C000400AF3EE000A20EE200ABCEEC00A10EE3A
:1017D000107A4FF6FF7000EA0414E01984B22C4826
:1017E000006840F002002A4908602948103000686B
:1017F00040F4802026491031086001200221002396
:101800000A46CDE900104FF440612248FEF70CFF74
:1018100007220A211F48FEF7E7FE07220B211D4879
:10182000FEF7E2FE1C48048000201B49091D0880C9
:101830000846008808800846008840F008000880B4
:101840000846008840F0040008800846008840F000
:10185000100008800223272219461846FFF788F84F
:10186000FFF7BEFA0C48001D008840F400500A49FA
:10187000091D088008480C30008840F040000649E7
:101880000C31088003B0BDEC028BF0BD40420F006C
:1018900030380240000402400848004010B50023E0
:1018A0000AE000BF048804F04004002CFAD00C7851
:1018B0008480491C5C1CE3B29342F2DB10BD000043
:1018C000E01800080000002034000000140F000899
:1018D00014190008340000203C050000240F000803
:1018E00055AA0000000000000000000000000000F9
:1018F00000000000000000F1F200120000000000F3
:101900000000000001000000000000006400000072
:0419100000000000D3
:040000050800018965
:00000001FF
